S0140000456A656D706C6F44485431312E7372656302
S11300000C9434000C9449000C9449000C9449005D
S11300100C9449000C9449000C9449000C94490038
S11300200C9449000C9449000C9449000C94490028
S11300300C9449000C9449000C9449000C94490018
S11300400C9449000C9449000C9449000C94490008
S11300500C9449000C9449000C9449000C944900F8
S11300600C9449000C94490011241FBECFEFD8E032
S1130070DEBFCDBF11E0A0E0B1E0E0E4F3E002C0F8
S113008005900D92AA33B107D9F70E9419010C9477
S11300909E010C9400009093C5008093C40088E0F6
S11300A08093C10086E08093C2000895FC0107C0DC
S11300B09091C00095FFFCCF31968093C60080815B
S11300C08111F6CF089590E007C045E04A95F1F715
S11300D000009F5F993C60F449B142FB222720F95C
S11300E030E0482F50E02417350779F781E0089570
S11300F080E00895CF92DF92EF92FF920F931F93C7
S1130100CF93DF9300D000D01F92CDB7DEB76C0140
S11301107B01FE01319685E0DF011D928A95E9F7A6
S11301208AB184608AB98BB18B7F8BB9BFEFE9EF59
S1130130F0E0B150E040F040E1F700C000008BB1C6
S113014084608BB920EA2A95F1F78AB18B7F8AB94A
S113015080E00E946300882309F452C081E00E9479
S11301606300882309F44EC080E00E946300882362
S113017009F44AC000E02BC081E00E946300882398
S113018009F444C085ED8A95F1F700004A9B19C033
S113019027E030E0211B310981E090E002C0880FA4
S11301A0991F2A95E2F7E1E0F0E0EC0FFD1FE00F64
S11301B0F11D9081892B808380E00E946300882355
S11301C039F11F5F01C010E01830B0F20F5F053045
S11301D0D0F32D8130E059818A8190E0850F911D03
S11301E04B81840F911D6C81860F911D99272817CF
S11301F0390781F4D6015C93F701408381E00BC099
S11302008FEF09C08FEF07C08FEF05C08FEF03C0DA
S11302108FEF01C080E00F900F900F900F900F9020
S1130220DF91CF911F910F91FF90EF90DF90CF90CE
S11302300895CF93DF93CDB7DEB72C970FB6F8941C
S1130240DEBF0FBECDBF87E690E00E944B0019824F
S11302501A8280E091E00E945600BE016E5F7F4FDB
S1130260CE0101960E947A00813029F586E191E061
S11302700E94560089814AE0BE016D5F7F4F90E085
S11302800E946901CE0103960E9456008AE191E022
S11302900E9456008A814AE0BE016D5F7F4F90E064
S11302A00E946901CE0103960E94560082E291E009
S11302B00E94560004C087E291E00E9456002FEF8E
S11302C087EA91E6215080409040E1F700C00000A9
S11302D0C4CFBB274A3031F4992322F4BDE2909570
S11302E081959F4F0C947501BB27FB015527AA27C5
S11302F0880F991FAA1FA41710F0A41B83955051AF
S1130300B9F7A05DAA3308F0A95DA193009779F726
S1130310B111B1931192CB010C948E01DC01FC015B
S1130320672F71917723E1F7329704C07C916D9325
S113033070836291AE17BF07C8F30895F894FFCF96
S113034053697374656D6120496E69636961646F93
S11303502E2E2E0D0A00483A200025207C20543AE7
S1130360200020430D0A004572726F7220646520DC
S10D03706C6563747572610D0A0078
S9030000FC
