S01A0000456A656D706C6F4932435F4573636C61766F2E7372656354
S11300000C9434000C943E000C943E000C943E007E
S11300100C943E000C943E000C943E000C943E0064
S11300200C943E000C943E000C943E000C943E0054
S11300300C943E000C943E000C943E000C943E0044
S11300400C943E000C943E000C943E000C943E0034
S11300500C943E000C943E000C943E000C943E0024
S11300600C943E000C943E0011241FBECFEFD8E048
S1130070DEBFCDBF0E944A000C9481000C940000A6
S113008097B19F7C97B9880F8093BA0084EC8093D2
S1130090BC0008958AB180628AB980E30E9440005E
S11300A08091BC008823E4F78091B900887F803771
S11300B049F018F4803631F020C0803839F0803AA5
S11300C0C1F01BC084EC8093BC00EACF8091BB00DC
S11300D0813421F48BB180628BB907C08091BB005D
S11300E0823419F48BB18F7D8BB984EC8093BC007E
S11300F0D7CF84EC8093BC00D3CF84EC8093BC0036
S1090100CFCFF894FFCFFD
S9030000FC
