:100000000C9434000C9446000C9446000C9446006A
:100010000C9446000C9446000C9446000C94460048
:100020000C9446000C9446000C9446000C94460038
:100030000C9446000C9446000C9446000C94460028
:100040000C9446000C9446000C9446000C94460018
:100050000C9446000C9446000C9446000C94460008
:100060000C946C000C94460011241FBECFEFD8E016
:10007000DEBFCDBF21E0A0E0B1E001C01D92A13004
:10008000B207E1F70E9452000C9499000C94000012
:1000900097B19F7C97B9880F8093BA0084EC8093C6
:1000A000BC00089584B1806284B980E30E94480056
:1000B00085EC8093BC00789480910001813421F418
:1000C00085B1806285B9F8CF809100018234A1F7B3
:1000D00085B18F7D85B9F0CF1F920F920FB60F9229
:1000E00011248F938091B900887F803749F018F4EC
:1000F000803631F015C0803839F0803A69F010C090
:1001000085EC8093BC000FC08091BB008093000100
:1001100085EC8093BC0007C085EC8093BC0003C0D5
:1001200085EC8093BC008F910F900FBE0F901F90B5
:060130001895F894FFCFC2
:00000001FF
