S01900004573636C61766F5F53656E736F725F44432E737265637F
S11300000C9434000C9451000C9451000C94510045
S11300100C9451000C9451000C9451000C94510018
S11300200C9451000C9451000C9451000C94510008
S11300300C9451000C9451000C9451000C945100F8
S11300400C9451000C9451000C9451000C945100E8
S11300500C9451000C9451000C9451000C945100D8
S11300600C9451000C94510011241FBECFEFD8E022
S1130070DEBFCDBF11E0A0E0B1E0E4EBF4E002C0EC
S113008005900D92AA32B107D9F721E0AAE2B1E0B6
S113009001C01D92AD32B207E1F70E949C010C949D
S11300A058020C94000080E480937C0087E88093DD
S11300B07A000895ECE7F0E09081907F8F70892BAF
S11300C08083EAE7F0E080818064808380917A0015
S11300D086FDFCCF809178009091790008958AB1D3
S11300E0806E8AB983E28093B00082E08093B1008D
S11300F01092B40008958BB180628BB98BB18F7B61
S11301008BB988EC8093B40008951092B4000895DC
S11301108093B400089590E007C045E04A95F1F754
S113012000009F5F993C60F449B142FB222720F90B
S113013030E0482F50E02417350779F781E008951F
S113014080E008958AB18B7F8AB98BB184608BB9C2
S11301502FEF83ED90E3215080409040E1F700C001
S113016000000895CF92DF92EF92FF920F931F93B6
S1130170CF93DF9300D000D01F92CDB7DEB76C01D0
S11301807B01FE01319685E0DF011D928A95E9F736
S11301908AB184608AB98BB18B7F8BB9BFEFE9EFE9
S11301A0F0E0B150E040F040E1F700C000008BB156
S11301B084608BB920EA2A95F1F78AB18B7F8AB9DA
S11301C080E00E948B00882309F452C081E00E94E1
S11301D08B00882309F44EC080E00E948B008823A2
S11301E009F44AC000E02BC081E00E948B00882300
S11301F009F444C085ED8A95F1F700004A9B19C0C3
S113020027E030E0211B310981E090E002C0880F33
S1130210991F2A95E2F7E1E0F0E0EC0FFD1FE00FF3
S1130220F11D9081892B808380E00E948B008823BC
S113023039F11F5F01C010E01830B0F20F5F0530D4
S1130240D0F32D8130E059818A8190E0850F911D92
S11302504B81840F911D6C81860F911D992728175E
S1130260390781F4D6015C93F701408381E00BC028
S11302708FEF09C08FEF07C08FEF05C08FEF03C06A
S11302808FEF01C080E00F900F900F900F900F90B0
S1130290DF91CF911F910F91FF90EF90DF90CF905E
S11302A00895880F8093BA0084EC8093BC0008956D
S11302B08091BC008823F4F58091B900887F803A4E
S11302C0C1F028F4803651F0803869F02EC0883BA4
S11302D0F1F0803C29F1883A41F510C084EC809318
S11302E0BC008FEF08958091BB0094EC9093BC0008
S11302F0089584EC8093BC008FEF089580912A01C7
S11303008093BB0084EC8093BC008FEF08958091B0
S11303102A018093BB0084EC8093BC008FEF089586
S113032084EC8093BC008FEF089584EC8093BC0030
S11303308FEF08958FEF0895CF93DF9300D0CDB75B
S1130340DEB760E080ED90E00E941D0280E091E065
S11303500E944B0281E30E9451010E9453000E94BB
S11303606F000E94A20084B1816084B985B18E7F40
S113037085B900E010E0003D87E0180788F0BE0171
S11303806F5F7F4FCE0102960E94B2008F3F31F023
S11303908A8180932C01898180932B0100E010E0F5
S11303A00E9458018F3F09F43FC0823479F128F448
S11303B0803449F0813439F137C08434D1F048F1C4
S11303C08534E1F031C085B1816085B98FE19EE467
S11303D00197F1F700C0000080E00E945A0025B1A7
S11303E02E7F25B9969587959695879580932A01B2
S11303F01BC080912C0180932A0116C080912B018F
S113040080932A0111C00E947B000EC00E948500C7
S11304100BC08091BC008823E4F78091BB0094EC6E
S11304209093BC000E9488008FE99FE00197F1F748
S113043000C000000F5F1F4F9ECFCF93DF939C013E
S11304409AB192609AB99AB19E7F9AB9E0ECF0E0C1
S11304501082A1ECB0E01C92C2ECD0E01882908132
S1130460926090833093C5002093C40086E0888313
S113047088E18C93613029F4E1ECF0E080818068BC
S11304808083DF91CF9108959091C00095FFFCCFB8
S11304908093C6000895CF93DF93EC0103C02196A7
S11304A00E94440288818111FACFDF91CF9108958F
S10704B0F894FFCFEA
S11304B4496E7665726E616465726F3A2045736342
S11304C46C61766F20416D6269656E74616C20495C
S10D04D46E69636961646F0D0A002C
S9030000FC
