S0150000456A656D706C6F54696D6572312E7372656311
S11300000C9440000C944A000C944A000C944A004E
S11300100C944A000C944A000C944A000C944A0034
S11300200C944A000C944A000C944A000C94AC00C2
S11300300C944A000C944A000C944A000C944A0014
S11300400C944A000C944A000C944A000C944A0004
S11300500C944A000C944A000C944A000C944A00F4
S11300600C944A000C944A006F0196019601960183
S1130070880174018D0179018301960192017E0149
S113008011241FBECFEFD8E0DEBFCDBF0E944C00CD
S11300900C94E9010C94000020E041E064E084E069
S11300A00E94CA0081E090E00E940A0184B180624B
S11300B084B985B18F7D85B9789481E090E00E9400
S11300C00A012FEF83E294EF215080409040E1F742
S11300D000C0000082E090E00E940A012FEF83E25A
S11300E094EF215080409040E1F700C0000084E08C
S11300F090E00E940A012FEF83E294EF21508040A8
S11301009040E1F700C0000088E090E00E940A01FE
S11301102FEF83E294EF215080409040E1F700C03C
S1130120000080E190E00E940A012FEF83E294EF47
S1130130215080409040E1F700C0000080E290E050
S11301400E940A012FEF83E294EF215080409040F7
S1130150E1F700C00000B1CF1F920F920FB60F92CB
S113016011248F939F9395B180E2892785B99F913C
S11301708F910F900FBE0F901F90189520918000C3
S11301802370909181009871892F90E095958795BF
S1130190822B0895A0E8B0E01C92E1E8F0E0108220
S11301A010926F00782F7370582F5C70550F677022
S11301B090E4299F900111249C91272B292B2C93A7
S11301C09081652B692B6083413019F5843031F0BF
S11301D08F3021F0893011F08B3031F4EFE6F0E00C
S11301E080818260808308958C3031F08E3021F0DC
S11301F0883011F08A3031F4EFE6F0E080818062DB
S113020080830895811105C0EFE6F0E0808181606C
S1130210808308954F925F926F927F928F929F9204
S1130220AF92BF92CF92DF92EF92FF920F931F9300
S1130230CF93DF93DC01909181009770933069F044
S113024018F49230C9F004C0943061F0953079F01C
S113025021E030E040E050E013C020E430E040E032
S113026050E00EC020E031E040E050E009C020E062
S113027034E040E050E004C028E030E040E050E0EA
S11302800E94CF014B015C019B01AC01220F331F83
S1130290441F551F0F2E412CF4E25F2EF4EF6F2EF6
S11302A0712CF02DC301B2010E94A70169017A01EA
S11302B0890101501109C301B201A50194010E94F1
S11302C0A701E90121970E94BE0090E0FC01349748
S11302D0EC30F10558F5EC5CFF4F0C94C901109318
S11302E089000093880022C0D0928900C0928800BF
S11302F01DC0D0928900C092880018C0D093890094
S1130300C093880013C010938700009386000EC02A
S1130310D0928700C092860009C0D0928700C09214
S1130320860004C0D0938700C0938600DF91CF91EC
S11303301F910F91FF90EF90DF90CF90BF90AF90FF
S11303409F908F907F906F905F904F900895A1E25F
S11303501A2EAA1BBB1BFD010DC0AA1FBB1FEE1F3B
S1130360FF1FA217B307E407F50720F0A21BB30B86
S1130370E40BF50B661F771F881F991F1A9469F702
S113038060957095809590959B01AC01BD01CF015E
S11303900895EE0FFF1F0590F491E02D09940E943B
S11303A0DA01A59F900DB49F900DA49F800D911D1F
S11303B011240895A29FB001B39FC001A39F700DA3
S11303C0811D1124911DB29F700D811D1124911D59
S10903D00895F894FFCF2C
S9030000FC
