S0110000506F6C69666F6E69612E7372656372
S11300000C9434000C9451000C9451000C94510045
S11300100C9451000C9451000C9451000C94510018
S11300200C9451000C9451000C9451000C946400F5
S11300300C9451000C9451000C9451000C945100F8
S11300400C9451000C9451000C9451000C945100E8
S11300500C9451000C9451000C9451000C945100D8
S11300600C9451000C94510011241FBECFEFD8E022
S1130070DEBFCDBF11E0A0E0B1E0EAE3F2E002C0F0
S113008005900D92A430B107D9F721E0A4E0B1E0C6
S113009001C01D92A031B207E1F70E9453000C94F5
S11300A01B010C94000020E041E061E084E00E9428
S11300B0DB008FE193E0909389008093880084B102
S11300C0806284B97894FFCF1F920F920FB60F927B
S11300D011244F935F936F937F938F939F93AF9369
S11300E0BF9340910C0150910D0160910E017091EC
S11300F00F018091000190910101A0910201B09142
S11301000301840F951FA61FB71F80930C019093C2
S11301100D01A0930E01B0930F014091080150917D
S1130120090160910A0170910B0180910401909181
S11301300501A0910601B0910701840F951FA61F28
S1130140B71F8093080190930901A0930A01B0930B
S11301500B0180910C0190910D01A0910E01B091C1
S11301600F018827B7FD83959927AA27BB274091BC
S113017008015091090160910A0170910B01442713
S113018077FD4395552766277727481721F085B1D2
S1130190806285B903C085B18F7D85B9BF91AF9168
S11301A09F918F917F916F915F914F910F900FBEAF
S11301B00F901F901895A0E8B0E01C92E1E8F0E0E1
S11301C0108210926F00782F7370582F5C70550F47
S11301D0677090E4299F900111249C91272B292B6F
S11301E02C939081652B692B6083413019F5843001
S11301F031F08F3021F0893011F08B3031F4EFE69B
S1130200F0E080818260808308958C3031F08E30FC
S113021021F0883011F08A3031F4EFE6F0E080818B
S1130220806280830895811105C0EFE6F0E080814B
S10D0230816080830895F894FFCFE5
S107023AFFFFFFFFC0
S9030000FC
