S0130000456A656D706C6F554152542E7372656309
S11300000C9434000C9451000C9451000C94510045
S11300100C9451000C9451000C9451000C94510018
S11300200C9451000C9451000C9451000C94510008
S11300300C9451000C9451000C9451000C945100F8
S11300400C9451000C9451000C9476000C945100C3
S11300500C9451000C9451000C9451000C945100D8
S11300600C9451000C94510011241FBECFEFD8E022
S1130070DEBFCDBF11E0A0E0B1E0ECEEF1E002C0E4
S113008005900D92A433B107D9F721E0A4E3B1E0C0
S113009001C01D92A633B207E1F70E9453000C94ED
S11300A0F4000C94000061E080ED90E00E9489006F
S11300B0789480E091E00E94E700809134018823E5
S11300C071F080E291E00E94E700809135010E9486
S11300D0E0008DE191E00E94E700109234018FE38B
S11300E09CE90197F1F700C00000E7CF1F920F923F
S11300F00FB60F9211248F938091C600809335011F
S113010081E0809334018F910F900FBE0F901F9068
S113011018952AB122602AB92AB12E7F2AB91092E1
S1130120C0001092C1001092C2008433910529F1DD
S113013038F48131910569F18232910521F12EC0A3
S1130140803D910571F0803A21E0920721F08836D4
S1130150910521F50CC0E0ECF0E0208122602083C1
S11301601DC0E0ECF0E020812260208317C0E0ECA9
S1130170F0E020812260208311C0E0ECF0E02081D7
S1130180226020830BC0E0ECF0E020812260208319
S113019005C0E0ECF0E02081226020839093C5004C
S11301A08093C40086E08093C20088E18093C100FC
S11301B060FF05C0E1ECF0E08081806880830895F1
S11301C09091C00095FFFCCF8093C6000895CF9313
S11301D0DF93EC0103C021960E94E0008881811125
S10F01E0FACFDF91CF910895F894FFCF7F
S11301EC2D2D2D205541525420636F6E20496E7471
S11301FC657272757063696F6E202D2D2D0D0A005A
S113020C526563696269646F20706F72204953523E
S107021C3A20000080
S9030000FC
