S01400004D61657374726F44617669642E737265634D
S11300000C9434000C9451000C9451000C94510045
S11300100C9451000C9451000C9451000C94510018
S11300200C9451000C9451000C9451000C94510008
S11300300C9451000C9451000C9451000C945100F8
S11300400C9451000C9451000C946F040C945100C6
S11300500C9451000C9451000C9451000C945100D8
S11300600C9451000C94510011241FBECFEFD8E022
S1130070DEBFCDBF11E0A0E0B1E0E0E7F0E102C0F7
S113008005900D92A63CB107D9F721E0A6ECB1E0AA
S113009001C01D92AB3FB207E1F70E940E040C941D
S11300A036080C940000FC01A281B3814C9121E03C
S11300B030E0C901048002C0880F991F0A94E2F756
S11300C0842B8C93A081B1818C91048002C0220F77
S11300D0331F0A94E2F7209528232C930895FC01FA
S11300E0662371F0A081B1812C9181E090E00480BD
S11300F002C0880F991F0A94E2F7822B8C9308950B
S1130100A081B1814C9121E030E0C901048002C09A
S1130110880F991F0A94E2F7809584238C9308959D
S1130120CF93DF93EC01259661E0CE010E946F002E
S113013085E08A95F1F7000060E0CE010E946F002F
S11301408FE891E00197F1F700C00000DF91CF91B3
S113015008950F931F93CF938C01C62F61700A9655
S11301600E946F00C1FB662760F9C8010F960E94C8
S11301706F00C2FB662760F9C80144960E946F00B5
S1130180C3FB662760F9C80149960E946F00C80145
S11301900E949000CF911F910F9108950F931F9388
S11301A0CF938C01C62F60E00E946F006C2F629584
S11301B06F70C8010E94A9006C2F6F70C8010E9463
S11301C0A9008FE39FE10197F1F700C00000CF91F0
S11301D01F910F9108950F931F93CF938C01C62FF6
S11301E061E00E946F006C2F62956F70C8010E94DD
S11301F0A9006C2F6F70C8010E94A90087EC90E0E1
S11302000197F1F700C00000CF911F910F9108955D
S11302100F931F93CF93DF938C01EB0104C02196BE
S1130220C8010E94EB0068816111F9CFDF91CF9181
S11302301F910F910895411102C020E001C020E4F4
S1130240620F60680E94CE00089561E00E94CE00B3
S11302508FE39FE10197F1F700C000000895CF9369
S1130260DF93EC010E945300CE0105960E945300D7
S1130270CE010A960E945300CE010F960E945300AD
S1130280CE0144960E945300CE0149960E94530029
S11302902FEF89EF90E0215080409040E1F700C0BB
S11302A0000060E0CE010E946F0063E0CE010E9476
S11302B0A9008FE19EE40197F1F700C0000063E01C
S11302C0CE010E94A90087E592E00197F1F700C0F2
S11302D0000063E0CE010E94A90062E0CE010E940A
S11302E0A90068E2CE010E94CE006CE0CE010E941B
S11302F0CE0066E0CE010E94CE00CE010E94250110
S1130300DF91CF9108950F931F93CF938B019C019D
S1130310C42F87B18F7C87B9E9EBF0E080818C7FB3
S11303208083403141F0403461F0443079F480817D
S1130330816080830BC0E9EBF0E080818260808380
S113034005C0E9EBF0E080818360808360E074E2C3
S113035084EF90E0A90198010E94F004CA01B90158
S113036060517109810991094C2F50E09A01220FC3
S1130370331F032E000C440B550B0E94F0042093F2
S1130380B800CF911F910F91089584EA8093BC0027
S113039080E090E007C09C012F5F3F4F813197427E
S11303A090F4C9012091BC002223ACF78091B900DC
S11303B0887F883021F0803121F481E0089581E044
S11303C0089580E0089580E0089584EA8093BC0055
S11303D080E090E007C09C012F5F3F4F813197423E
S11303E068F4C9012091BC002223ACF79091B900B4
S11303F0987F81E0903119F080E0089580E00895BD
S113040084E98093BC0008958093BB0084E88093C2
S1130410BC0080E090E007C09C012F5F3F4F81311A
S1130420974248F4C9012091BC002223ACF7809183
S1130430B900887F089580E00895FC01662321F0C7
S113044084EC8093BC000CC084E88093BC0008C09A
S1130450A9014F5F5F4F21313742C0F49A0102C0B6
S113046020E030E09091BC00992394F79091B9007A
S1130470987F662311F0903521F0611109C09835F9
S113048049F48091BB00808381E0089580E0089561
S113049080E0089580E008958F3F99F0813A98F0C4
S11304A0282F30E0205A310944E6429FC001439F7F
S11304B0900D11246FE570E00E94DC04842F861BEC
S11304C0089580E0089584E60895CF93DF93D82FAC
S11304D0C62F0E94C501882349F08D2F880F0E94E2
S11304E004028C2F0E9404020E940002DF91CF912B
S11304F00895CF93C82F0E94C501882359F082E63E
S11305000E94040283E40E9404028C2F0E940402CD
S11305100E940002CF910895CF93DF931F92CDB72D
S1130520DEB719820E94C501882391F082E60E94F9
S1130530040280E40E9404020E94E50183E60E9412
S1130540040260E0CE0101960E941D020E94000296
S113055089810F90DF91CF910895CF93DF9300D0DD
S1130560CDB7DEB719821A820E94C5018823B9F07B
S113057082E70E9404028CEA0E9404020E94E501C0
S113058083E70E94040261E0CE0101960E941D02ED
S113059060E0CE0102960E941D020E9400028A8140
S11305A090E0982F88272981822B0F900F90DF915C
S11305B0CF910895CF938091DB01803509F44EC02B
S11305C030F4863409F466C08C3479F176C083350E
S11305D009F452C0863509F46AC0813509F06DC04A
S11305E00E948C020E944C02C82F1F928F9389E3B1
S11305F091E09F938F938AEC91E09F938F930E9455
S11306004C058AEC91E00E94CF040F900F900F905C
S11306100F900F900F90C93218F08EE191E002C054
S11306208BE291E00E94CF0448C00E94AD029F93E8
S11306308F938AE491E09F938F938AEC91E09F9348
S11306408F930E944C058AEC91E00E94CF040F9096
S11306500F900F900F900F900F902FC08091DC019E
S1130660813329F460E280E30E94650226C061E2DE
S113067080E30E94650221C08091DC01813329F46A
S113068060E180E30E94650218C061E180E30E949A
S1130690650213C08091DC01813321F461E40E947E
S11306A065020BC062E481E30E94650206C08CED22
S11306B091E00E9426050E947902CF910895CF937C
S11306C0DF93D82FC62F0E94C501882361F082E7EB
S11306D00E9404028D2F80680E9404028C2F0E94C5
S11306E004020E940002DF91CF91089563E080E04C
S11306F00E945F038FE39CE90197F1F700C00000BB
S113070062E181E00E945F0308950F931F93CF93EA
S1130710DF93CDB7DEB76F970FB6F894DEBF0FBE89
S1130720CDBF19820E94C5018823B1F182E70E94DE
S113073004028AE80E9404020E94E50183E70E9401
S1130740040260E0CE0101960E941D020E94000294
S113075089811F928F9384E591E09F938F938E01FB
S11307600E5F1F4F1F930F930E944C05C8010E94F8
S1130770CF04898181500F900F900F900F900F90AC
S11307800F908E3F28F48CE691E00E94CF0404C0C1
S11307908BE791E00E94CF046F960FB6F894DEBF0A
S11307A00FBECDBFDF91CF911F910F91089541E00E
S11307B060EA76E881E090E00E94830161E080EDE8
S11307C090E00E94A10480E091E00E942F010E9429
S11307D076030E948503789480E091E00E942501CD
S11307E040E060E080E091E00E941B0160E971E07C
S11307F080E091E00E9408018FE991E00E94CF041B
S11308002FEF89E698E1215080409040E1F700C045
S1130810000080E091E00E94250108950E94D70322
S11308208091C801882321F00E94DA021092C80145
S11308308091C6019091C7019C012F5F3F4F309377
S1130840C7012093C601853F914008F441C00E942E
S1130850AD02182F092F0E948C020E944C02C82F4F
S113086041E060E080E091E00E941B011F92CF9381
S11308708FEA91E09F938F93CAECD1E0DF93CF93FB
S11308800E944C05BE0180E091E00E94080140E016
S11308906AE080E091E00E941B010F931F9380ECBB
S11308A091E09F938F93DF93CF930E944C05BE01F9
S11308B080E091E00E9408011092C7011092C601E5
S11308C08DB79EB70C960FB6F8949EBF0FBE8DBF22
S11308D08FE99FE00197F1F700C00000A1CF1F92BC
S11308E00F920FB60F9211248F939F93EF93FF9360
S11308F08091C6008A3011F08D3061F4E091C90115
S1130900F0E0E552FE4F108281E08093C80110921E
S1130910C9010EC09091C9019F3150F4E091C90101
S113092091E09E0F9093C901F0E0E552FE4F808361
S1130930FF91EF919F918F910F900FBE0F901F9099
S11309401895CF93DF939C019AB192609AB99AB1AA
S11309509E7F9AB9E0ECF0E01082A1ECB0E01C922A
S1130960C2ECD0E018829081926090833093C500ED
S11309702093C40086E0888388E18C93613029F455
S1130980E1ECF0E0808180688083DF91CF9108956D
S11309909091C00095FFFCCF8093C6000895CF933B
S11309A0DF93EC0103C021960E94C8048881811161
S11309B0FACFDF91CF91089597FB072E16F4009498
S11309C007D077FD09D00E94120507FC05D03EF43C
S11309D0909581959F4F0895709561957F4F0895E7
S11309E0A1E21A2EAA1BBB1BFD010DC0AA1FBB1F2F
S11309F0EE1FFF1FA217B307E407F50720F0A21BA1
S1130A00B30BE40BF50B661F771F881F991F1A940D
S1130A1069F760957095809590959B01AC01BD0137
S1130A20CF010895AA1BBB1B51E107C0AA1FBB1F1E
S1130A30A617B70710F0A61BB70B881F991F5A9566
S1130A40A9F780959095BC01CD010895FC018827F4
S1130A509927E89421912032E9F3293010F02E30BF
S1130A60C8F32B3241F02D3239F4689404C00E944B
S1130A704405820F911D219120532A30C0F31EF4A6
S1130A80909581959F4F08957AE0979F902D879F29
S1130A90802D910D11240895AEE0B0E0E2E5F5E07B
S1130AA00C940D080D891E8986E08C831A830983B2
S1130AB08FEF9FE79E838D83AE01475E5F4F6F8903
S1130AC0788DCE0101960E946E05EF81F885E00FC6
S1130AD0F11F10822E96E4E00C942908ABE0B0E0FC
S1130AE0E4E7F5E00C94FF076C017B018A01FC014B
S1130AF017821682838181FFCCC1CE0101963C010D
S1130B00F6019381F70193FD859193FF81917F0114
S1130B10882309F4BAC1853239F493FD859193FF92
S1130B2081917F01853229F4B60190E00E94650726
S1130B30E7CF912C212C312CFFE1F315D8F08B3227
S1130B4079F038F4803279F08332A1F4232D2061D6
S1130B501DC08D3261F0803369F4232D216016C0ED
S1130B60832D8260382EE32DE4603E2E2AC0F32DBF
S1130B70F8601DC037FC2DC020ED280F2A3040F04E
S1130B808E32B9F436FC81C1232D2064322E19C073
S1130B9036FE06C08AE0989E200D1124922E11C0C4
S1130BA0EAE02E9E200D1124222EF32DF0623F2E1A
S1130BB008C08C3621F4832D8068382E02C0883614
S1130BC041F4F70193FD859193FF81917F01811198
S1130BD0B3CF982F9F7D9554933028F40C5F1F4F0B
S1130BE09FE399830DC0833631F0833771F08335E9
S1130BF009F059C021C0F801808189830E5F1F4F1D
S1130C0088248394912C530113C02801F2E04F0EE1
S1130C10511CF801A080B18036FE03C0692D70E03C
S1130C2002C06FEF7FEFC5010E945A074C01820199
S1130C30F32DFF773F2E16C0280122E0420E511CEF
S1130C40F801A080B18036FE03C0692D70E002C0B7
S1130C506FEF7FEFC5010E944F074C01F32DF06841
S1130C603F2E820133FC1BC0822D90E0881699062A
S1130C70B0F4B60180E290E00E9465072A94F4CFB4
S1130C80F50137FC859137FE81915F01B60190E053
S1130C900E94650721102A9421E0821A9108811488
S1130CA0910471F7E8C0843611F0893641F5F801F2
S1130CB037FE07C060817181828193810C5F1F4F71
S1130CC008C060817181072E000C880B990B0E5FA0
S1130CD01F4FF32DFF763F2E97FF09C09095809507
S1130CE0709561957F4F8F4F9F4FF0683F2E2AE09C
S1130CF030E0A3010E94A107882E861845C08537DD
S1130D0031F4232D2F7EB22E2AE030E025C0932D1E
S1130D10997FB92E8F36C1F018F4883579F0B5C0B3
S1130D20803719F0883721F0B0C0E92FE061BE2E7A
S1130D30B4FE0DC0FB2DF460BF2E09C034FE0AC002
S1130D40292F2660B22E06C028E030E005C020E13D
S1130D5030E002C020E132E0F801B7FE07C0608154
S1130D607181828193810C5F1F4F06C06081718104
S1130D7080E090E00E5F1F4FA3010E94A107882E20
S1130D808618FB2DFF773F2E36FE0DC0232D2E7FB8
S1130D90A22E891458F434FE0BC032FC09C0832DF2
S1130DA08E7EA82E05C0B82CA32C03C0B82C01C07D
S1130DB0B92CA4FE0FC0FE01E80DF11D8081803323
S1130DC021F49A2D997EA92E09C0A2FE06C0B394DF
S1130DD0B39404C08A2D867809F0B394A3FC11C09F
S1130DE0A0FE06C0B21488F4280C922C9B180EC0E6
S1130DF0B21460F4B60180E290E00E946507B394F7
S1130E00F7CFB21418F42B1802C0982C212CA4FE8E
S1130E1010C0B60180E390E00E946507A2FE17C0EF
S1130E20A1FC03C088E790E002C088E590E0B60129
S1130E300CC08A2D867859F0A1FE02C08BE201C055
S1130E4080E2A7FC8DE2B60190E00E946507891458
S1130E5038F4B60180E390E00E9465079A94F7CFD6
S1130E608A94F301E80DF11D8081B60190E00E949F
S1130E7065078110F5CF222009F442CEB60180E245
S1130E8090E00E9465072A94F6CFF6018681978147
S1130E9002C08FEF9FEF2B96E2E10C941B08FC013C
S1130EA00590615070400110D8F7809590958E0F91
S1130EB09F1F0895FC016150704001900110D8F704
S1130EC0809590958E0F9F1F08950F931F93CF9336
S1130ED0DF93FB01238121FD03C08FEF9FEF2CC023
S1130EE022FF16C04681578124813581421753075A
S1130EF044F4A081B1819D012F5F3F4F3183208352
S1130F008C93268137812F5F3F4F3783268314C00C
S1130F108B01EC01FB010084F185E02D0995892BFF
S1130F20E1F6D80116968D919C9117970196179624
S1130F309C938E931697CE01DF91CF911F910F91C1
S1130F400895FA01AA27283051F1203181F1E8945B
S1130F506F936E7F6E5F7F4F8F4F9F4FAF4FB1E0A8
S1130F603ED0B4E03CD0670F781F891F9A1FA11DA3
S1130F70680F791F8A1F911DA11D6A0F711D811DA4
S1130F80911DA11D20D009F468943F912AE0269F69
S1130F9011243019305D3193DEF6CF010895462FC8
S1130FA04770405D4193B3E00FD0C9F7F6CF462FA9
S1130FB04F70405D4A3318F0495D31FD4052419312
S1130FC002D0A9F7EACFB4E0A695979587957795CF
S1130FD06795BA95C9F700976105710508959B0156
S1130FE0AC010A2E06945795479537952795BA95DF
S1130FF0C9F7620F731F841F951FA01D08952F92B8
S11310003F924F925F926F927F928F929F92AF9294
S1131010BF92CF92DF92EF92FF920F931F93CF93E1
S1131020DF93CDB7DEB7CA1BDB0B0FB6F894DEBF78
S11310300FBECDBF09942A88398848885F846E849E
S11310407D848C849B84AA84B984C884DF80EE80E8
S1131050FD800C811B81AA81B981CE0FD11D0FB6F1
S1131060F894DEBF0FBECDBFED010895F894FFCF15
S11310702B002A00022B002A00032B002A00052B38
S1131080002A00062B002A000725002400005374C0
S1131090617475733A204F4B0D0A00537461747573
S11310A0733A204452590D0A00536F696C204875F5
S11310B06D3A20256425250D0A004C757A3A2025C1
S11310C0750D0A0049442064656C2053656E736F86
S11310D0723A203078253032580D0A0053656E7309
S11310E06F72205649564F210D0A0053656E736F77
S11310F072204E4F20524553504F4E44450D0A0026
S1131100494E5645524E414445524F204F4B005391
S1131110697374656D61206C6973746F0D0A00489E
S1131120756D3A20253364252520202020202000B9
S10911304C3A2534750061
S9030000FC
