:100000000C9434000C943E000C943E000C943E0082
:100010000C943E000C943E000C943E000C943E0068
:100020000C943E000C943E000C943E000C943E0058
:100030000C943E000C943E000C943E000C943E0048
:100040000C943E000C943E000C943E000C943E0038
:100050000C943E000C943E000C943E000C943E0028
:100060000C943E000C943E0011241FBECFEFD8E04C
:10007000DEBFCDBF0E9460000C9484000C94000091
:1000800084EA8093BC008091BC008823E4F79091BF
:10009000B900987F81E0983009F080E0089584E904
:1000A0008093BC0008958093BB0084E88093BC00DB
:1000B0008091BC008823E4F78091B900887F08957F
:1000C0000E9440008823B1F080E60E9453008831EE
:1000D00079F481E40E9453002FEF89E698E12150E2
:1000E00080409040E1F700C0000082E40E9453008D
:1000F0000E944F002FEF89E698E121508040904008
:0C010000E1F700C00000DCCFF894FFCF56
:00000001FF
