:100000000C9434000C9451000C9451000C94510049
:100010000C9451000C9451000C9451000C9451001C
:100020000C9451000C9451000C9451000C9451000C
:100030000C9451000C9451000C9451000C945100FC
:100040000C9451000C9451000C9476030C945100C4
:100050000C9451000C9451000C9451000C945100DC
:100060000C9451000C94510011241FBECFEFD8E026
:10007000DEBFCDBF11E0A0E0B1E0E6EDFDE002C0E3
:1000800005900D92AC38B107D9F721E0ACE8B1E0AA
:1000900001C01D92AD38B207E1F70E9466030C94CF
:1000A000E9060C940000FC01A281B3814C9121E08F
:1000B00030E0C901048002C0880F991F0A94E2F75A
:1000C000842B8C93A081B1818C91048002C0220F7B
:1000D000331F0A94E2F7209528232C930895FC01FE
:1000E000662371F0A081B1812C9181E090E00480C1
:1000F00002C0880F991F0A94E2F7822B8C9308950F
:10010000A081B1814C9121E030E0C901048002C09E
:10011000880F991F0A94E2F7809584238C930895A1
:10012000CF93DF93EC01259661E0CE010E946F0032
:1001300085E08A95F1F7000060E0CE010E946F0033
:100140008FE891E00197F1F700C00000DF91CF91B7
:1001500008950F931F93CF938C01C62F61700A9659
:100160000E946F00C1FB662760F9C8010F960E94CC
:100170006F00C2FB662760F9C80144960E946F00B9
:10018000C3FB662760F9C80149960E946F00C80149
:100190000E949000CF911F910F9108950F931F938C
:1001A000CF938C01C62F60E00E946F006C2F629588
:1001B0006F70C8010E94A9006C2F6F70C8010E9467
:1001C000A9008FE39FE10197F1F700C00000CF91F4
:1001D0001F910F9108950F931F93CF938C01C62FFA
:1001E00061E00E946F006C2F62956F70C8010E94E1
:1001F000A9006C2F6F70C8010E94A90087EC90E0E5
:100200000197F1F700C00000CF911F910F91089561
:100210000F931F93CF93DF938C01EB0104C02196C2
:10022000C8010E94EB0068816111F9CFDF91CF9185
:100230001F910F910895411102C020E001C020E4F8
:10024000620F60680E94CE00089561E00E94CE00B7
:100250008FE39FE10197F1F700C000000895CF936D
:10026000DF93EC010E945300CE0105960E945300DB
:10027000CE010A960E945300CE010F960E945300B1
:10028000CE0144960E945300CE0149960E9453002D
:100290002FEF89EF90E0215080409040E1F700C0BF
:1002A000000060E0CE010E946F0063E0CE010E947A
:1002B000A9008FE19EE40197F1F700C0000063E020
:1002C000CE010E94A90087E592E00197F1F700C0F6
:1002D000000063E0CE010E94A90062E0CE010E940E
:1002E000A90068E2CE010E94CE006CE0CE010E941F
:1002F000CE0066E0CE010E94CE00CE010E94250114
:10030000DF91CF91089520E63AEE02C021503109E5
:100310008091BC0088231CF021153105B9F781E0DC
:10032000232B09F480E008950F931F93CF938B0143
:100330009C01C42F87B18F7C87B9E9EBF0E0808105
:100340008C7F8083403141F0403461F0443079F457
:100350008081816080830BC0E9EBF0E08081826066
:10036000808305C0E9EBF0E080818360808360E0FA
:1003700074E284EF90E0A90198010E94DD03CA01B4
:10038000B90160517109810991094C2F50E09A011E
:10039000220F331F032E000C440B550B0E94DD036C
:1003A0002093B800CF911F910F91089584EA809314
:1003B000BC000E948301882339F09091B900987F96
:1003C00081E0983009F080E0089584EA8093BC00D1
:1003D0000E948301882339F09091B900987F81E0D1
:1003E000903109F080E0089584E98093BC0008957D
:1003F0008093BB0084E88093BC000E948301882323
:1004000021F08091B900887F08958FEF08950F93B0
:100410001F93CF938C01C62F662321F084EC809329
:10042000BC0003C084E88093BC000E948301882341
:10043000A1F08091B900887FCC2311F0803521F0A4
:10044000C11108C0883541F48091BB00F801808358
:1004500081E003C080E001C080E0CF911F910F9147
:10046000089580918C01882371F141E06CE080E077
:1004700091E00E941B0180918C01823481F018F47C
:10048000813431F00895833489F08434B1F00895D3
:100490006EE171E080E091E00E940801089562E25F
:1004A00071E080E091E00E940801089566E271E049
:1004B00080E091E00E94080108956AE271E080E026
:1004C00091E00E94080108950E94D601882331F12D
:1004D00082E70E94F801883199F480E80E94F801CF
:1004E00083E00E94F80141E060E080E091E00E943A
:1004F0001B016EE271E080E091E00E9408010CC0F7
:1005000041E060E080E091E00E941B016EE371E059
:1005100080E091E00E9408010E94F401089561E0EA
:1005200080ED90E00E94860341E060EA76E881E099
:1005300090E00E94940180E091E00E942F0180E011
:1005400091E00E9425016EE471E080E091E00E945C
:10055000080184B1806384B985B18F7C85B90E941C
:10056000640278942FEF83ED90E321508040904017
:10057000E1F700C0000080E091E00E9425010895AD
:10058000CF93DF9300D0CDB7DEB719821A820E94D5
:10059000D6018823B9F082E70E94F8018CEA0E9414
:1005A000F8010E94E50183E70E94F80161E0CE01B5
:1005B00001960E94070260E0CE0102960E940702A7
:1005C0000E94F4018A8190E0982F88272981822B4C
:1005D0000F900F90DF91CF9108950F931F93CF93BA
:1005E000DF93CDB7DEB760970FB6F894DEBF0FBECE
:1005F000CDBF85B1806285B90E94C0029F938F9361
:100600008EE591E09F938F938E010F5F1F4F1F9395
:100610000F930E94FF0340E060E080E091E00E94C1
:100620001B01B80180E091E00E94080185B18F7D37
:1006300085B98FE39CE90197F1F700C0000085B10F
:10064000806185B90E94D6010F900F900F900F9096
:100650000F900F90882361F184E60E94F8018831A1
:10066000C9F481E40E94F8018FE19EE40197F1F75B
:1006700000C0000082E40E94F80141E060E080E0F8
:1006800091E00E941B016BE671E080E091E00E9426
:1006900008010CC041E060E080E091E00E941B0195
:1006A0006BE771E080E091E00E9408010E94F40194
:1006B00085B18F7E85B960960FB6F894DEBF0FBE08
:1006C000CDBFDF91CF911F910F9108950E948F02AE
:1006D0000E9431020E94ED022FEF83EC99E021503D
:1006E00080409040E1F700C00000F2CF1F920F92CF
:1006F0000FB60F9211248F938091C60080938C01C6
:100700008F910F900FBE0F901F9018952AB1226005
:100710002AB92AB12E7F2AB91092C0001092C100C6
:100720001092C2008433910529F138F4813191058A
:1007300069F18232910521F12EC0803D910571F061
:10074000803A21E0920721F08836910521F50CC00E
:10075000E0ECF0E02081226020831DC0E0ECF0E0BE
:1007600020812260208317C0E0ECF0E0208122602D
:10077000208311C0E0ECF0E02081226020830BC0D8
:10078000E0ECF0E020812260208305C0E0ECF0E0A6
:100790002081226020839093C5008093C40086E06E
:1007A0008093C20088E18093C10060FF05C0E1EC46
:1007B000F0E08081806880830895A1E21A2EAA1B50
:1007C000BB1BFD010DC0AA1FBB1FEE1FFF1FA21701
:1007D000B307E407F50720F0A21BB30BE40BF50BFE
:1007E000661F771F881F991F1A9469F76095709587
:1007F000809590959B01AC01BD01CF010895AEE0BD
:10080000B0E0E5E0F4E00C94C0060D891E8986E0B6
:100810008C831A8309838FEF9FE79E838D83AE01BC
:10082000475E5F4F6F89788DCE0101960E9421044B
:10083000EF81F885E00FF11F10822E96E4E00C9412
:10084000DC06ABE0B0E0E7E2F4E00C94B2066C0149
:100850007B018A01FC0117821682838181FFCCC152
:10086000CE0101963C01F6019381F70193FD85913C
:1008700093FF81917F01882309F4BAC1853239F44D
:1008800093FD859193FF81917F01853229F4B60113
:1008900090E00E941806E7CF912C212C312CFFE12B
:1008A000F315D8F08B3279F038F4803279F0833256
:1008B000A1F4232D20611DC08D3261F0803369F4D5
:1008C000232D216016C0832D8260382EE32DE46035
:1008D0003E2E2AC0F32DF8601DC037FC2DC020ED40
:1008E000280F2A3040F08E32B9F436FC81C1232D16
:1008F0002064322E19C036FE06C08AE0989E200D74
:100900001124922E11C0EAE02E9E200D1124222ED9
:10091000F32DF0623F2E08C08C3621F4832D8068C1
:10092000382E02C0883641F4F70193FD859193FF7C
:1009300081917F018111B3CF982F9F7D9554933082
:1009400028F40C5F1F4F9FE399830DC0833631F06D
:10095000833771F0833509F059C021C0F8018081D7
:1009600089830E5F1F4F88248394912C530113C0F9
:100970002801F2E04F0E511CF801A080B18036FE34
:1009800003C0692D70E002C06FEF7FEFC5010E94C8
:100990000D064C018201F32DFF773F2E16C0280172
:1009A00022E0420E511CF801A080B18036FE03C047
:1009B000692D70E002C06FEF7FEFC5010E94020653
:1009C0004C01F32DF0683F2E820133FC1BC0822DB9
:1009D00090E088169906B0F4B60180E290E00E949B
:1009E00018062A94F4CFF50137FC859137FE8191E2
:1009F0005F01B60190E00E94180621102A9421E0C0
:100A0000821A91088114910471F7E8C0843611F0BC
:100A1000893641F5F80137FE07C060817181828116
:100A200093810C5F1F4F08C060817181072E000CFD
:100A3000880B990B0E5F1F4FF32DFF763F2E97FF0C
:100A400009C090958095709561957F4F8F4F9F4F0E
:100A5000F0683F2E2AE030E0A3010E945406882E61
:100A6000861845C0853731F4232D2F7EB22E2AE01B
:100A700030E025C0932D997FB92E8F36C1F018F440
:100A8000883579F0B5C0803719F0883721F0B0C0CB
:100A9000E92FE061BE2EB4FE0DC0FB2DF460BF2E29
:100AA00009C034FE0AC0292F2660B22E06C028E0F5
:100AB00030E005C020E130E002C020E132E0F80182
:100AC000B7FE07C060817181828193810C5F1F4FE7
:100AD00006C06081718180E090E00E5F1F4FA3012E
:100AE0000E945406882E8618FB2DFF773F2E36FE77
:100AF0000DC0232D2E7FA22E891458F434FE0BC076
:100B000032FC09C0832D8E7EA82E05C0B82CA32CE4
:100B100003C0B82C01C0B92CA4FE0FC0FE01E80D23
:100B2000F11D8081803321F49A2D997EA92E09C070
:100B3000A2FE06C0B394B39404C08A2D867809F04F
:100B4000B394A3FC11C0A0FE06C0B21488F4280C14
:100B5000922C9B180EC0B21460F4B60180E290E0B3
:100B60000E941806B394F7CFB21418F42B1802C0E1
:100B7000982C212CA4FE10C0B60180E390E00E94C6
:100B80001806A2FE17C0A1FC03C088E790E002C0CF
:100B900088E590E0B6010CC08A2D867859F0A1FE58
:100BA00002C08BE201C080E2A7FC8DE2B60190E0BA
:100BB0000E941806891438F4B60180E390E00E9480
:100BC00018069A94F7CF8A94F301E80DF11D8081FD
:100BD000B60190E00E9418068110F5CF222009F49A
:100BE00042CEB60180E290E00E9418062A94F6CF29
:100BF000F6018681978102C08FEF9FEF2B96E2E18D
:100C00000C94CE06FC010590615070400110D8F79D
:100C1000809590958E0F9F1F0895FC016150704044
:100C200001900110D8F7809590958E0F9F1F089521
:100C30000F931F93CF93DF93FB01238121FD03C00B
:100C40008FEF9FEF2CC022FF16C046815781248171
:100C500035814217530744F4A081B1819D012F5F74
:100C60003F4F318320838C93268137812F5F3F4F05
:100C70003783268314C08B01EC01FB010084F185CE
:100C8000E02D0995892BE1F6D80116968D919C915E
:100C90001797019617969C938E931697CE01DF9126
:100CA000CF911F910F910895FA01AA27283051F191
:100CB000203181F1E8946F936E7F6E5F7F4F8F4F8D
:100CC0009F4FAF4FB1E03ED0B4E03CD0670F781FEC
:100CD000891F9A1FA11D680F791F8A1F911DA11DD1
:100CE0006A0F711D811D911DA11D20D009F468940A
:100CF0003F912AE0269F11243019305D3193DEF6B2
:100D0000CF010895462F4770405D4193B3E00FD067
:100D1000C9F7F6CF462F4F70405D4A3318F0495D52
:100D200031FD4052419302D0A9F7EACFB4E0A69535
:100D30009795879577956795BA95C9F70097610557
:100D4000710508959B01AC010A2E069457954795AD
:100D500037952795BA95C9F7620F731F841F951FA2
:100D6000A01D08952F923F924F925F926F927F92B3
:100D70008F929F92AF92BF92CF92DF92EF92FF92AB
:100D80000F931F93CF93DF93CDB7DEB7CA1BDB0B57
:100D90000FB6F894DEBF0FBECDBF09942A883988FC
:100DA00048885F846E847D848C849B84AA84B98403
:100DB000C884DF80EE80FD800C811B81AA81B9810F
:100DC000CE0FD11D0FB6F894DEBF0FBECDBFED0123
:060DD0000895F894FFCF26
:100DD6002B002A00022B002A00032B002A00052BD9
:100DE600002A00062B002A000725002400005B418C
:100DF6005D005B425D005B435D005B445D004C75DE
:100E06007A3A20436F6E65637461646F20004C7597
:100E16007A3A204E6F204465746563742E004C75D3
:100E26007A202B204573636C61766F2032004C75F7
:100E36007A3A20253575206C75780053323A20456C
:100E46006E76204F4B20202020200053323A204E31
:0C0E56006F20526573702E2020200000D9
:00000001FF
