:100000000C9434000C9449000C9449000C94490061
:100010000C9449000C9449000C9449000C9449003C
:100020000C9449000C9449000C9449000C9449002C
:100030000C9449000C9449000C9449000C9449001C
:100040000C9449000C9449000C94BE010C94490096
:100050000C9449000C9449000C9449000C944900FC
:100060000C9449000C94490011241FBECFEFD8E036
:10007000DEBFCDBF11E0A0E0B1E0EEE4F4E002C0ED
:1000800005900D92AE33B107D9F70E9492010C94FE
:1000900025020C940000FC01A281B3814C9121E067
:1000A00030E0C901048002C0880F991F0A94E2F76A
:1000B000842B8C93A081B1818C91048002C0220F8B
:1000C000331F0A94E2F7209528232C930895FC010E
:1000D000662371F0A081B1812C9181E090E00480D1
:1000E00002C0880F991F0A94E2F7822B8C9308951F
:1000F000A081B1814C9121E030E0C901048002C0AF
:10010000880F991F0A94E2F7809584238C930895B1
:10011000CF93DF93EC01259661E0CE010E9467004A
:1001200085E08A95F1F7000060E0CE010E9467004B
:100130008FE891E00197F1F700C00000DF91CF91C7
:1001400008950F931F93CF938C01C62F61700A9669
:100150000E946700C1FB662760F9C8010F960E94E4
:100160006700C2FB662760F9C80144960E946700D9
:10017000C3FB662760F9C80149960E946700C80161
:100180000E948800CF911F910F9108950F931F93A4
:10019000CF938C01C62F60E00E9467006C2F6295A0
:1001A0006F70C8010E94A1006C2F6F70C8010E947F
:1001B000A1008FE39FE10197F1F700C00000CF910C
:1001C0001F910F9108950F931F93CF938C01C62F0A
:1001D00061E00E9467006C2F62956F70C8010E94F9
:1001E000A1006C2F6F70C8010E94A10087EC90E005
:1001F0000197F1F700C00000CF911F910F91089572
:100200000F931F93CF93DF938C01EB0104C02196D2
:10021000C8010E94E30068816111F9CFDF91CF919D
:100220001F910F910895411102C020E001C020E408
:10023000620F60680E94C600089561E00E94C600D7
:100240008FE39FE10197F1F700C000000895CF937D
:10025000DF93EC010E944B00CE0105960E944B00FB
:10026000CE010A960E944B00CE010F960E944B00D1
:10027000CE0144960E944B00CE0149960E944B004D
:100280002FEF89EF90E0215080409040E1F700C0CF
:10029000000060E0CE010E94670063E0CE010E9492
:1002A000A1008FE19EE40197F1F700C0000063E038
:1002B000CE010E94A10087E592E00197F1F700C00E
:1002C000000063E0CE010E94A10062E0CE010E9426
:1002D000A10068E2CE010E94C6006CE0CE010E943F
:1002E000C60066E0CE010E94C600CE010E941D013C
:1002F000DF91CF91089561E080ED90E00E94CE0102
:1003000080E091E00E94270140E060E080E091E021
:100310000E9413016FE171E080E091E00E94000112
:10032000789408950E947B0180911E01813419F018
:10033000823471F019C041E060E080E091E00E94F9
:1003400013016AE271E080E091E00E9400010CC0BC
:1003500041E060E080E091E00E94130164E371E01D
:1003600080E091E00E9400012FEF83EC99E02150A2
:1003700080409040E1F700C00000D6CF1F920F925E
:100380000FB60F9211248F938091C60080931E01A7
:100390008F910F900FBE0F901F9018952AB1226079
:1003A0002AB92AB12E7F2AB91092C0001092C1003A
:1003B0001092C2008433910529F138F481319105FE
:1003C00069F18232910521F12EC0803D910571F0D5
:1003D000803A21E0920721F08836910521F50CC082
:1003E000E0ECF0E02081226020831DC0E0ECF0E032
:1003F00020812260208317C0E0ECF0E020812260A1
:10040000208311C0E0ECF0E02081226020830BC04B
:10041000E0ECF0E020812260208305C0E0ECF0E019
:100420002081226020839093C5008093C40086E0E1
:100430008093C20088E18093C10060FF05C0E1ECB9
:0E044000F0E08081806880830895F894FFCFFB
:10044E002B002A00022B002A00032B002A00052B6A
:10045E00002A00062B002A00072500240000314543
:10046E006A65637574616E646F00434F4D414E440F
:0E047E004F203100434F4D414E444F2032007D
:00000001FF
