S01A0000456A656D706C6F4932435F4D61657374726F2E7372656346
S11300000C9434000C943E000C943E000C943E007E
S11300100C943E000C943E000C943E000C943E0064
S11300200C943E000C943E000C943E000C943E0054
S11300300C943E000C943E000C943E000C943E0044
S11300400C943E000C943E000C943E000C943E0034
S11300500C943E000C943E000C943E000C943E0024
S11300600C943E000C943E0011241FBECFEFD8E048
S1130070DEBFCDBF0E94A2000C94EF000C940000E0
S11300800F931F93CF938B019C01C42F87B18F7C57
S113009087B9E9EBF0E080818C7F8083403141F0C7
S11300A0403461F0443079F48081816080830BC0F6
S11300B0E9EBF0E080818260808305C0E9EBF0E049
S11300C080818360808360E074E284EF90E0A90122
S11300D098010E94CD00CA01B901605171098109DA
S11300E091094C2F50E09A01220F331F032E000C6C
S11300F0440B550B0E94CD002093B800CF911F9163
S11301000F91089584EA8093BC008091BC008823F9
S1130110E4F79091B900987F81E0983009F080E08D
S1130120089584E98093BC0008958093BB0084E81B
S11301308093BC008091BC008823E4F78091B900CF
S1130140887F089541E060EA76E881E090E00E94CB
S113015040000E9482008823B1F080E60E9495004E
S1130160883179F481E40E9495002FEF89E698E1C3
S1130170215080409040E1F700C0000082E40E94DA
S113018095000E9491002FEF89E698E1215080406C
S11301909040E1F700C00000DCCFA1E21A2EAA1BB8
S11301A0BB1BFD010DC0AA1FBB1FEE1FFF1FA21723
S11301B0B307E407F50720F0A21BB30BE40BF50B20
S11301C0661F771F881F991F1A9469F760957095A9
S11301D0809590959B01AC01BD01CF010895F894E1
S10501E0FFCF4B
S9030000FC
